:020000040800F2
:100000000080012099030008E9030008E9030008C3
:10001000E9030008E9030008E90300080000000004
:10002000000000000000000000000000E9030008DC
:10003000E903000800000000E9030008E9030008E4
:10004000E9030008E9030008E9030008E9030008E0
:10005000E9030008E9030008E9030008E9030008D0
:10006000E9030008E9030008E9030008E9030008C0
:10007000E9030008E9030008E9030008E9030008B0
:10008000E9030008E9030008E9030008E9030008A0
:10009000E9030008E9030008E9030008E903000890
:1000A000E9030008E9030008E9030008E903000880
:1000B000E9030008E9030008E9030008E903000870
:1000C000E9030008E9030008E9030008E903000860
:1000D000E9030008E9030008E9030008E903000850
:1000E000E9030008E9030008E9030008E903000840
:1000F000E9030008E9030008E9030008E903000830
:10010000E9030008E9030008E9030008E90300081F
:10011000E9030008E9030008AD060008E903000848
:10012000E9030008E9030008E9030008E9030008FF
:10013000E9030008E9030008E9030008E9030008EF
:10014000E9030008E9030008E9030008E9030008DF
:10015000E9030008E9030008E9030008E9030008CF
:10016000E9030008E9030008E9030008E9030008BF
:10017000E9030008E9030008E903000800000000A3
:08018000E9030008E90300088F
:1001880010B5054C237833B9044B13B10448AFF3C9
:1001980000800123237010BD3004002000000000FF
:1001A8009C0D000808B5034B1BB103490348AFF386
:1001B800008008BD00000000340400209C0D0008E9
:1001C80070B50D4E0D4D761BB61006D000240134C7
:1001D80055F8043B9847A642F9D1094E094D761BBC
:1001E80000F0D8FDB61006D00024013455F8043BC1
:1001F8009847A642F9D170BDC80D0008C80D00087F
:10020800D00D0008C80D0008024B13B1024800F0D9
:1002180005B87047000000003102000800230146BD
:100228001A46184600F01EB838B50A4C0A4D641B29
:10023800A4100AD004F18043013B05EB8305013C7F
:1002480055F804399847002CF9D1BDE8384000F03A
:10025800A7BD00BFD40D0008D00D0008704700BF2F
:10026800704700BF2DE9F8432B4D0646286898468D
:100278000F469146FFF7F2FF284B1C68D4F8483127
:10028800002B3DD05A681F2A0DDC02F1010C16BB69
:100298000232C3F804C0286843F82270FFF7E0FF71
:1002A8000020BDE8F8831E4B7BB34FF4C870AFF352
:1002B8000080034648B3D4F848210021C0E9002152
:1002C8004FF0010CC4F848010A46C0F88811C0F87C
:1002D8008C11002EDCD003EB82010124C1F8889038
:1002E800D3F8880194402043022EC3F88801C1F84E
:1002F8000881CDD1D3F88C110C43C3F88C41C7E7E2
:1003080004F5A673C4F84831BCE72868FFF7A8FFCE
:100318004FF0FF30C5E700BF28040020C40D0008D7
:100328000000000080B400AF174BD3F88830164A9D
:1003380043F47003C2F88830144B1B68134A43F027
:1003480001031360114B00229A60104B1B680F4A7F
:1003580023F0A85323F4102313600C4B4FF480525E
:10036800DA600A4B1B68094A23F480231360074BA1
:1003780000229A61044B4FF000629A6000BFBD46AC
:100388005DF8047B704700BF00ED00E000100240FC
:10039800DFF834D0002103E00C4B5B5843500431A4
:1003A8000B480C4B42189A42F6D30B4A02E0002342
:1003B80042F8043B094B9A42F9D3FFF7B3FFFFF722
:1003C800FFFE00F00FF8FEE700800120D80D0008BE
:1003D80000000020300400203004002070040020B9
:1003E800FEE7000080B586B000AF00F073F800F0BB
:1003F80091F900F017F914233B7400237B74002350
:10040800BB7407F11003184600F0B8FA2C4B1B68B0
:100418007B6107F11403184600F04AFB294A07F1EB
:10042800080392E8030018600433198002330A0CA9
:100438001A7007F1080301222349184600F0D8FB77
:100448003B46184600F088FA204BDB6803F48073BB
:10045800002B14BF01230023DBB2002BF0D04FF098
:1004680090435B6903F02003002B14BF0123002392
:10047800DBB2002B08D04FF090439B694FF09042BD
:1004880043F40013936107E04FF090439B694FF0EA
:10049800904243F0200393610D4B1B680C4A43F4D0
:1004A80080731360094BDB68084A23F48073D360B8
:1004B800074B1B68064A23F480731360C0E700BF2C
:1004C800B80D0008BC0D000880000080002800401E
:1004D8000070004080B400AF504B1B684F4A43F493
:1004E800807313604D4B1B6803F48063002B0CBFB3
:1004F80001230023DBB2002B00D0F3E7474B9B68B6
:10050800464A23F003039360444B9B68434A43F0F5
:1005180001039360414B9B6803F00403002B0CBF5D
:1005280001230023DBB2002B00D0F3E73B4B1B6811
:100538003A4A23F080731360384B1B6803F000734A
:10054800002B14BF01230023DBB2002B00D0F3E7FC
:10055800324B1B68314A23F0010313602F4B1B6891
:1005680003F00203002B14BF01230023DBB2002B8E
:1005780000D0F3E72A4B1B6823F00703284A43F00F
:1005880004031360254BDB6823F00303234A43F07D
:100598000203D360214BDB68204A23F07003D36049
:1005A8001E4BDB6823F4FE431C4A43F42063D360EC
:1005B8001A4BDB68194A23F0C063D360174B1B68DA
:1005C800164A43F080731360144B1B6803F00073E2
:1005D800002B0CBF01230023DBB2002B00D0F3E774
:1005E8000E4BDB680D4A43F08073D3600B4B9B685E
:1005F8000A4A43F003039360084B9B6803F00C031B
:10060800002B0CBF01230023DBB2002B00D0F3E743
:1006180000BFBD465DF8047B704700BF0010024074
:100628000020024080B400AF1D4BDB6C1C4A43F035
:100638000103D3644FF090431B684FF0904223F4BA
:10064800406313604FF090431B684FF0904243F4AF
:10065800806313604FF090435B684FF0904223F043
:10066800200353604FF090439B684FF0904223F46F
:10067800406393604FF090439B684FF0904243F47F
:10068800406393604FF09043DB684FF0904223F44F
:100698004063D36000BFBD465DF8047B704700BF70
:1006A8000010024080B400AF194B1B6903F001032E
:1006B800012B0CBF01230023DBB2002B22D04FF00B
:1006C80090435B6903F02003002B14BF0123002330
:1006D800DBB2002B08D04FF090439B694FF090425B
:1006E80043F40013936107E04FF090439B694FF088
:1006F800904243F020039361054B1B69044A23F0A1
:100708000103136100BFBD465DF8047B704700BF5D
:100718000010004080B400AF374B9B6D364A43F061
:1007280080539365354B1B68344A43F480731360D8
:10073800314BD3F89030304A43F48033C2F89030CC
:100748002D4BD3F890302C4A23F48033C2F89030E4
:10075800294BD3F89030284A43F00103C2F890306F
:10076800254BD3F8903003F00203002B0CBF012374
:100778000023DBB2002B00D0F2E71F4BD3F89030F8
:1007880023F403431C4A43F40143C2F890301C4B42
:10079800CA225A621A4B53225A62194BDB68184A0A
:1007A80043F08003D360164BDB6803F04003002B53
:1007B8000CBF01230023DBB2002B00D0F3E7104B62
:1007C800104A1A610E4B9B680D4A23F04003936050
:1007D8000B4BDB680A4A23F08003D360084BFF22E7
:1007E8005A62064B1B68054A23F48073136000BFE6
:1007F800BD465DF8047B7047001002400070004061
:1008080000280040FF007F0080B485B000AF78600A
:10081800244B1B681B0C03F03F03FB60FB681B09A0
:10082800DBB21A46920013445B00DAB2FB68DBB213
:1008380003F00F03DBB21344DAB27B681A70194B6A
:100848001B681B0A03F07F03FB60FB681B09DBB214
:100858001A46920013445B00DAB2FB68DBB203F07D
:100868000F03DBB21344DAB27B685A700D4B1B6876
:1008780003F07F03FB60FB681B09DBB21A4692009A
:1008880013445B00DAB2FB68DBB203F00F03DBB2A0
:100898001344DAB27B689A7000BF1437BD465DF81E
:1008A800047B70470028004080B485B000AF7860B2
:1008B800284B5B681B0CDBB2FB60FB681B09DBB2D7
:1008C8001A46920013445B00DAB2FB68DBB203F00D
:1008D8000F03DBB21344DAB27B681A701D4B5B68F6
:1008E8005B0BDBB203F00703DAB27B685A70194B73
:1008F8005B681B0A03F01F03FB60FB681B09DBB284
:100908001A46920013445B00DAB2FB68DBB203F0CC
:100918000F03DBB21344DAB27B689A700D4B5B6845
:1009280003F03F03FB60FB681B09DBB21A46920029
:1009380013445B00DAB2FB68DBB203F00F03DBB2EF
:100948001344DAB27B68DA7000BF1437BD465DF82D
:10095800047B70470028004080B582B000AF786003
:100968007B681846FFF7A0FF7B6804331846FFF73B
:100978004BFF00BF0837BD4680BD000090B482B071
:1009880000AF7860464B1B68454A43F48073136098
:10099800444BCA225A62434B53225A62414BDB688A
:1009A800404A43F08003D3603E4BDB6803F04003CA
:1009B800002B0CBF01230023DBB2002B00D0F3E790
:1009C800384B394A1A617B681B78384AA2FB0323E3
:1009D800DB08DBB21B0503F440107B681A78334B45
:1009E800A3FB0213D9080B469B000B445B00D31AE8
:1009F800DBB21B0403F4702318437B685B782B4A33
:100A0800A2FB0323DB08DBB21B0303F4E0447B688F
:100A18005A78264BA3FB0213D9080B469B000B44BC
:100A28005B00D31ADBB21B0203F470632343184341
:100A38007B689B781D4AA2FB0323DB08DBB21B0102
:100A480003F070047B689A78184BA3FB0213D9084B
:100A58000B469B000B445B00D31ADBB203F00F0379
:100A6800234340EA03020F4B1A600E4B9B680D4A62
:100A780023F0400393600B4BDB680A4A23F08003A2
:100A8800D360084BFF225A62054B1B68044A23F4C3
:100A98008073136000BF0837BD4690BC704700BF25
:100AA8000070004000280040FF007F00CDCCCCCC77
:100AB80090B482B000AF7860494B1B68484A43F451
:100AC80080731360474BCA225A62464B53225A62BC
:100AD800444BDB68434A43F08003D360414BDB68F7
:100AE80003F04003002B0CBF01230023DBB2002BD3
:100AF80000D0F3E73B4B3C4A1A617B681B783B4AC2
:100B0800A2FB0323DB08DBB21B0503F470007B6840
:100B18001A78364BA3FB0213D9080B469B000B44EB
:100B28005B00D31ADBB21B0403F4702340EA030210
:100B38007B685B785B039BB242EA03007B689B7827
:100B48002A4AA2FB0323DB08DBB21B0303F480540D
:100B58007B689A78254BA3FB0213D9080B469B00A8
:100B68000B445B00D31ADBB21B0203F4706323430C
:100B780018437B68DB781D4AA2FB0323DB08DBB242
:100B88001B0103F030047B68DA78184BA3FB0213CF
:100B9800D9080B469B000B445B00D31ADBB203F069
:100BA8000F03234340EA03020E4B5A600D4B9B6828
:100BB8000C4A23F0400393600A4BDB68094A23F090
:100BC8008003D360074BFF225A62054B1B68044A17
:100BD80023F48073136000BF0837BD4690BC70478C
:100BE8000070004000280040FF007F00CDCCCCCC36
:100BF80080B487B000AFF860B9601346FB71624BF0
:100C08001B68614A43F480731360604BCA225A62BE
:100C18005E4B53225A625D4B9B685C4A23F4807397
:100C280093605A4BDB6803F00103002B0CBF0123D0
:100C38000023DBB2002B00D0F3E70023FB75FB7920
:100C4800002B0AD0FB685B785BB203F00F035BB242
:100C580043F040035BB2FB7518E0FB68DB784C4A55
:100C6800A2FB0323DB08DBB21B0158B2FB68DA786E
:100C7800474BA3FB0213D9080B469B000B445B00B0
:100C8800D31ADBB25BB203435BB2FB75FB681B791B
:100C98003F4AA2FB0323DB08DBB21B0158B2FB6807
:100CA8001A793B4BA3FB0213D9080B469B000B4454
:100CB8005B00D31ADBB25BB203435BB2BB75FB6864
:100CC8005B79334AA2FB0323DB08DBB21B0158B272
:100CD800FB685A792E4BA3FB0213D9080B469B00DD
:100CE8000B445B00D31ADBB25BB203435BB27B7588
:100CF800FB689B79264AA2FB0323DB08DBB21B01B6
:100D080058B2FB689A79224BA3FB0213D9080B4609
:100D18009B000B445B00D31ADBB25BB203435BB2AC
:100D28003B751A4B4FF08032DA61184BDB69FA7D5C
:100D38001106BA7D120411437A7D120211433A7DDD
:100D48000A431146114A0B43D361104BDA69BB6859
:100D5800DB430E491340CB610C4BDB693B610B4B0A
:100D68009B680A4A43F480739360084BFF225A62D7
:100D7800054B1B68044A23F48073136000BF1C37BB
:100D8800BD465DF8047B70470070004000280040B5
:100D9800CDCCCCCCF8B500BFF8BC08BC9E4670479B
:100DA800F8B500BFF8BC08BC9E46704700000000BC
:100DB80012020A1012020A1014030A00000000208E
:080DC80011020008AD01000852
:080DD000890100080000000089
:100DD80000000000EC02002054030020BC030020A7
:100DE80000000000000000000000000000000000FB
:100DF80000000000000000000000000000000000EB
:100E080000000000000000000000000000000000DA
:100E180000000000000000000000000000000000CA
:100E280000000000000000000000000000000000BA
:100E380000000000000000000000000000000000AA
:100E4800000000000000000000000000000000009A
:100E5800000000000000000000000000000000008A
:100E6800000000000000000000000000000000007A
:100E78000000000000000000010000000000000069
:100E88000E33CDAB34126DE6ECDE05000B0000002E
:100E9800000000000000000000000000000000004A
:100EA800000000000000000000000000000000003A
:100EB800000000000000000000000000000000002A
:100EC800000000000000000000000000000000001A
:1011F80000000000000000004C0400200000000077
:040000050800039953
:00000001FF
