:020000040800F2
:100000000080012099030008E9030008E9030008C3
:10001000E9030008E9030008E90300080000000004
:10002000000000000000000000000000E9030008DC
:10003000E903000800000000E9030008E9030008E4
:10004000E9030008E9030008E9030008E9030008E0
:10005000E9030008E9030008E9030008E9030008D0
:10006000E9030008E9030008E9030008E9030008C0
:10007000E9030008E9030008E9030008E9030008B0
:10008000E9030008E9030008E9030008E9030008A0
:10009000E9030008E9030008E9030008E903000890
:1000A000E9030008E9030008E9030008E903000880
:1000B000E9030008E9030008E9030008E903000870
:1000C000E9030008E9030008E9030008E903000860
:1000D000E9030008E9030008E9030008E903000850
:1000E000E9030008E9030008E9030008E903000840
:1000F000E9030008E9030008E9030008E903000830
:10010000E9030008E9030008E9030008E90300081F
:10011000E9030008E903000899060008E90300085C
:10012000E9030008E9030008E9030008E9030008FF
:10013000E9030008E9030008E9030008E9030008EF
:10014000E9030008E9030008E9030008E9030008DF
:10015000E9030008E9030008E9030008E9030008CF
:10016000E9030008E9030008E9030008E9030008BF
:10017000E9030008E9030008E903000800000000A3
:08018000E9030008E90300088F
:1001880010B5054C237833B9044B13B10448AFF3C9
:1001980000800123237010BD3004002000000000FF
:1001A8003C0D000808B5034B1BB103490348AFF3E6
:1001B800008008BD00000000340400203C0D000849
:1001C80070B50D4E0D4D761BB61006D000240134C7
:1001D80055F8043B9847A642F9D1094E094D761BBC
:1001E80000F0A8FDB61006D00024013455F8043BF1
:1001F8009847A642F9D170BD680D0008680D00083F
:10020800700D0008680D0008024B13B1024800F099
:1002180005B87047000000003102000800230146BD
:100228001A46184600F01EB838B50A4C0A4D641B29
:10023800A4100AD004F18043013B05EB8305013C7F
:1002480055F804399847002CF9D1BDE8384000F03A
:1002580077BD00BF740D0008700D0008704700BF1F
:10026800704700BF2DE9F8432B4D0646286898468D
:100278000F469146FFF7F2FF284B1C68D4F8483127
:10028800002B3DD05A681F2A0DDC02F1010C16BB69
:100298000232C3F804C0286843F82270FFF7E0FF71
:1002A8000020BDE8F8831E4B7BB34FF4C870AFF352
:1002B8000080034648B3D4F848210021C0E9002152
:1002C8004FF0010CC4F848010A46C0F88811C0F87C
:1002D8008C11002EDCD003EB82010124C1F8889038
:1002E800D3F8880194402043022EC3F88801C1F84E
:1002F8000881CDD1D3F88C110C43C3F88C41C7E7E2
:1003080004F5A673C4F84831BCE72868FFF7A8FFCE
:100318004FF0FF30C5E700BF28040020640D000837
:100328000000000080B400AF174BD3F88830164A9D
:1003380043F47003C2F88830144B1B68134A43F027
:1003480001031360114B00229A60104B1B680F4A7F
:1003580023F0A85323F4102313600C4B4FF480525E
:10036800DA600A4B1B68094A23F480231360074BA1
:1003780000229A61044B4FF000629A6000BFBD46AC
:100388005DF8047B704700BF00ED00E000100240FC
:10039800DFF834D0002103E00C4B5B5843500431A4
:1003A8000B480C4B42189A42F6D30B4A02E0002342
:1003B80042F8043B094B9A42F9D3FFF7B3FFFFF722
:1003C800FFFE00F00FF8FEE700800120780D00081E
:1003D80000000020300400203004002070040020B9
:1003E800FEE7000080B588B000AF00F069F800F0C3
:1003F80087F900F00DF914233B7500237B75002362
:10040800BB7507F11403184600F09CFA294B1B68CA
:10041800BB6107F11803184600F02EFB264A07F1C6
:100428000C0392E8030018600433198002330A0CA5
:100438001A7007F10C038021184600F0BDFB07F184
:100448000803184600F0D6F93B1D184600F022FABA
:100458001A4BDB69FB61194BDB6803F48073002BD3
:1004680014BF01230023DBB2002BE8D04FF09043E8
:100478005B6903F02003002B14BF01230023DBB2C8
:10048800002B08D04FF090439B694FF0904243F403
:100498000013936107E04FF090439B694FF090423F
:1004A80043F020039361054BDB68044A23F480730F
:1004B800D360C4E7580D00085C0D00080028004010
:1004C80080B400AF504B1B684F4A43F480731360ED
:1004D8004D4B1B6803F48063002B0CBF01230023E2
:1004E800DBB2002B00D0F3E7474B9B68464A23F06A
:1004F80003039360444B9B68434A43F001039360B2
:10050800414B9B6803F00403002B0CBF012300231D
:10051800DBB2002B00D0F3E73B4B1B683A4A23F0D1
:1005280080731360384B1B6803F00073002B14BFF3
:1005380001230023DBB2002B00D0F3E7324B1B680A
:10054800314A23F0010313602F4B1B6803F00203A9
:10055800002B14BF01230023DBB2002B00D0F3E7EC
:100568002A4B1B6823F00703284A43F0040313604F
:10057800254BDB6823F00303234A43F00203D360CF
:10058800214BDB68204A23F07003D3601E4BDB68E5
:1005980023F4FE431C4A43F42063D3601A4BDB6800
:1005A800194A23F0C063D360174B1B68164A43F0FF
:1005B80080731360144B1B6803F00073002B0CBF8F
:1005C80001230023DBB2002B00D0F3E70E4BDB68DE
:1005D8000D4A43F08073D3600B4B9B680A4A43F083
:1005E80003039360084B9B6803F00C03002B0CBFBC
:1005F80001230023DBB2002B00D0F3E700BFBD4688
:100608005DF8047B704700BF0010024000200240E4
:1006180080B400AF1D4BDB6C1C4A43F00103D3646C
:100628004FF090431B684FF0904223F440631360EF
:100638004FF090431B684FF0904243F4806313607F
:100648004FF090435B684FF0904223F020035360D3
:100658004FF090439B684FF0904223F440639360BF
:100668004FF090439B684FF0904243F4406393608F
:100678004FF09043DB684FF0904223F44063D3601F
:1006880000BFBD465DF8047B704700BF0010024004
:1006980080B400AF194B1B6903F00103012B0CBF99
:1006A80001230023DBB2002B22D04FF090435B697B
:1006B80003F02003002B14BF01230023DBB2002B1F
:1006C80008D04FF090439B694FF0904243F40013D9
:1006D800936107E04FF090439B694FF0904243F0DD
:1006E80020039361054B1B69044A23F0010313613E
:1006F80000BFBD465DF8047B704700BF0010004096
:1007080080B400AF374B9B6D364A43F080539365F6
:10071800354B1B68344A43F480731360314BD3F86C
:100728009030304A43F48033C2F890302D4BD3F8E0
:1007380090302C4A23F48033C2F89030294BD3F8F8
:100748009030284A43F00103C2F89030254BD3F883
:10075800903003F00203002B0CBF01230023DBB20F
:10076800002B00D0F2E71F4BD3F8903023F403435B
:100778001C4A43F40143C2F890301C4BCA225A6207
:100788001A4B53225A62194BDB68184A43F080030C
:10079800D360164BDB6803F04003002B0CBF01232A
:1007A8000023DBB2002B00D0F3E7104B104A1A618C
:1007B8000E4B9B680D4A23F0400393600B4BDB689C
:1007C8000A4A23F08003D360084BFF225A62064B83
:1007D8001B68054A23F48073136000BFBD465DF8AB
:1007E800047B704700100240007000400028004061
:1007F800FF007F0080B485B000AF7860244B1B6891
:100808001B0C03F03F03FB60FB681B09DBB21A46B5
:10081800920013445B00DAB2FB68DBB203F00F030B
:10082800DBB21344DAB27B681A70194B1B681B0AD7
:1008380003F07F03FB60FB681B09DBB21A469200DA
:1008480013445B00DAB2FB68DBB203F00F03DBB2E0
:100858001344DAB27B685A700D4B1B6803F07F03B0
:10086800FB60FB681B09DBB21A46920013445B006D
:10087800DAB2FB68DBB203F00F03DBB21344DAB27F
:100888007B689A7000BF1437BD465DF8047B7047DB
:100898000028004080B485B000AF7860284B5B68C2
:1008A8001B0CDBB2FB60FB681B09DBB21A4692002B
:1008B80013445B00DAB2FB68DBB203F00F03DBB270
:1008C8001344DAB27B681A701D4B5B685B0BDBB2B2
:1008D80003F00703DAB27B685A70194B5B681B0A8E
:1008E80003F01F03FB60FB681B09DBB21A4692008A
:1008F80013445B00DAB2FB68DBB203F00F03DBB230
:100908001344DAB27B689A700D4B5B6803F03F03BF
:10091800FB60FB681B09DBB21A46920013445B00BC
:10092800DAB2FB68DBB203F00F03DBB21344DAB2CE
:100938007B68DA7000BF1437BD465DF8047B7047EA
:100948000028004090B482B000AF7860464B1B6826
:10095800454A43F480731360444BCA225A62434B9E
:1009680053225A62414BDB68404A43F08003D3600C
:100978003E4BDB6803F04003002B0CBF0123002330
:10098800DBB2002B00D0F3E7384B394A1A617B6899
:100998001B78384AA2FB0323DB08DBB21B0503F4F0
:1009A80040107B681A78334BA3FB0213D9080B4617
:1009B8009B000B445B00D31ADBB21B0403F47023C7
:1009C80018437B685B782B4AA2FB0323DB08DBB266
:1009D8001B0303F4E0447B685A78264BA3FB0213FD
:1009E800D9080B469B000B445B00D31ADBB21B02F1
:1009F80003F47063234318437B689B781D4AA2FB6A
:100A08000323DB08DBB21B0103F070047B689A78D0
:100A1800184BA3FB0213D9080B469B000B445B0041
:100A2800D31ADBB203F00F03234340EA03020F4B50
:100A38001A600E4B9B680D4A23F0400393600B4BE2
:100A4800DB680A4A23F08003D360084BFF225A620E
:100A5800054B1B68044A23F48073136000BF0837F2
:100A6800BD4690BC704700BF0070004000280040A1
:100A7800FF007F00CDCCCCCC90B482B000AF7860C2
:100A8800494B1B68484A43F480731360474BCA229A
:100A98005A62464B53225A62444BDB68434A43F03E
:100AA8008003D360414BDB6803F04003002B0CBF8D
:100AB80001230023DBB2002B00D0F3E73B4B3C4A79
:100AC8001A617B681B783B4AA2FB0323DB08DBB275
:100AD8001B0503F470007B681A78364BA3FB0213DE
:100AE800D9080B469B000B445B00D31ADBB21B04EE
:100AF80003F4702340EA03027B685B785B039BB2D4
:100B080042EA03007B689B782A4AA2FB0323DB089E
:100B1800DBB21B0303F480547B689A78254BA3FB54
:100B28000213D9080B469B000B445B00D31ADBB2B7
:100B38001B0203F47063234318437B68DB781D4A68
:100B4800A2FB0323DB08DBB21B0103F030047B6844
:100B5800DA78184BA3FB0213D9080B469B000B4409
:100B68005B00D31ADBB203F00F03234340EA03020E
:100B78000E4B5A600D4B9B680C4A23F04003936060
:100B88000A4BDB68094A23F08003D360074BFF2236
:100B98005A62054B1B68044A23F48073136000BF34
:100BA8000837BD4690BC70470070004000280040E0
:100BB800FF007F00CDCCCCCC80B485B000AF78608E
:100BC8003960594B1B68584A43F480731360574B7C
:100BD800CA225A62554B53225A62544B9B68534A55
:100BE80023F480739360514BDB6803F00103002BFF
:100BF8000CBF01230023DBB2002B00D0F3E77B6896
:100C0800DB784B4AA2FB0323DB08DBB21B0158B29B
:100C18007B68DA78464BA3FB0213D9080B469B0086
:100C28000B445B00D31ADBB25BB203435BB2FB73CA
:100C38007B681B793E4AA2FB0323DB08DBB21B015E
:100C480058B27B681A793A4BA3FB0213D9080B46B2
:100C58009B000B445B00D31ADBB25BB203435BB26D
:100C6800BB737B685B79324AA2FB0323DB08DBB2E8
:100C78001B0158B27B685A792D4BA3FB0213D90884
:100C88000B469B000B445B00D31ADBB25BB20343F9
:100C98005BB27B737B689B79254AA2FB0323DB0845
:100CA800DBB21B0158B27B689A79214BA3FB021374
:100CB800D9080B469B000B445B00D31ADBB25BB22E
:100CC80003435BB23B73194B4FF08032DA61174B29
:100CD800DB69FA7B1106BA7B120411437A7B120294
:100CE80011433A7B0A431146104A0B43D3610F4B19
:100CF800DA693B68DB430D491340CB610B4B9B68BA
:100D08000A4A43F480739360084BFF225A62064BE9
:100D18001B68054A23F48073136000BF1437BD466F
:100D28005DF8047B704700BF007000400028004059
:100D3800CDCCCCCCF8B500BFF8BC08BC9E467047FB
:100D4800F8B500BFF8BC08BC9E467047000000001C
:100D580012020A1012020A1014011E0000000020DC
:080D680011020008AD010008B2
:080D70008901000800000000E9
:100D780000000000EC02002054030020BC03002007
:100D8800000000000000000000000000000000005B
:100D9800000000000000000000000000000000004B
:100DA800000000000000000000000000000000003B
:100DB800000000000000000000000000000000002B
:100DC800000000000000000000000000000000001B
:100DD800000000000000000000000000000000000B
:100DE80000000000000000000000000000000000FB
:100DF80000000000000000000000000000000000EB
:100E080000000000000000000000000000000000DA
:100E180000000000000000000100000000000000C9
:100E28000E33CDAB34126DE6ECDE05000B0000008E
:100E380000000000000000000000000000000000AA
:100E4800000000000000000000000000000000009A
:100E5800000000000000000000000000000000008A
:100E6800000000000000000000000000000000007A
:1011980000000000000000004C04002000000000D7
:040000050800039953
:00000001FF
